:1000000012C024C023C022C021C020C01FC01EC0F7
:100010001DC01CC01BC01AC019C018C017C016C014
:1000200015C014C013C011241FBECFE5D4E0DEBF3D
:10003000CDBF10E0A0E6B0E0ECEDF0E002C005902E
:100040000D92A038B107D9F727D046C0D9CF82BBCF
:1000500084E085BB81EE94E00197F1F700C00000D9
:1000600015BA089582BB85E085BB81EE94E00197C7
:10007000F1F700C0000081E085BB0895CF93DF93C6
:10008000EC018881882329F02196ECDF8991811188
:10009000FCCFDF91CF91089587E084BB8FEF81BBC8
:1000A00088E3D5DF8EE0D3DF81E0D1DF81E0CFDFF1
:1000B00080E8CDDF80E690E0E1DF80ECC8DF82E71A
:1000C00090E0DCDF2FE38DE093E021508040904012
:0C00D000E1F700C00000EACFF894FFCF79
:1000DC0020204C434420494E544552464143494EFE
:1000EC00470020204259202035564F4C545A0000CE
:00000001FF
